{
  "_format": "hh-sol-artifact-1",
  "contractName": "Report",
  "sourceName": "contracts/Report.sol",
  "abi": [
    {
      "inputs": [],
      "name": "LoginAsAdmin",
      "outputs": [
        {
          "internalType": "bool",
          "name": "",
          "type": "bool"
        }
      ],
      "stateMutability": "view",
      "type": "function"
    },
    {
      "inputs": [
        {
          "internalType": "string",
          "name": "_crops",
          "type": "string"
        },
        {
          "internalType": "string",
          "name": "_state",
          "type": "string"
        },
        {
          "internalType": "uint256",
          "name": "_price",
          "type": "uint256"
        },
        {
          "internalType": "uint256",
          "name": "_quantity",
          "type": "uint256"
        },
        {
          "internalType": "string",
          "name": "_terms",
          "type": "string"
        },
        {
          "internalType": "uint256",
          "name": "_payment",
          "type": "uint256"
        }
      ],
      "name": "ReportCrime",
      "outputs": [],
      "stateMutability": "nonpayable",
      "type": "function"
    },
    {
      "inputs": [],
      "name": "viewReports",
      "outputs": [
        {
          "components": [
            {
              "internalType": "uint256",
              "name": "timestamp",
              "type": "uint256"
            },
            {
              "internalType": "string",
              "name": "crops",
              "type": "string"
            },
            {
              "internalType": "string",
              "name": "state",
              "type": "string"
            },
            {
              "internalType": "uint256",
              "name": "price",
              "type": "uint256"
            },
            {
              "internalType": "uint256",
              "name": "quantity",
              "type": "uint256"
            },
            {
              "internalType": "string",
              "name": "terms",
              "type": "string"
            },
            {
              "internalType": "uint256",
              "name": "payment",
              "type": "uint256"
            }
          ],
          "internalType": "struct Report.report[]",
          "name": "",
          "type": "tuple[]"
        }
      ],
      "stateMutability": "view",
      "type": "function"
    }
  ],
  "bytecode": "0x6080604052604051806020016040528073cab9b57a22a721f45af5f002a40fb6818c20346973ffffffffffffffffffffffffffffffffffffffff1673ffffffffffffffffffffffffffffffffffffffff168152506001906001610063929190610076565b5034801561007057600080fd5b50610110565b82600281019282156100e2579160200282015b828111156100e15782518260006101000a81548173ffffffffffffffffffffffffffffffffffffffff021916908373ffffffffffffffffffffffffffffffffffffffff16021790555091602001919060010190610089565b5b5090506100ef91906100f3565b5090565b5b8082111561010c5760008160009055506001016100f4565b5090565b610db58061011f6000396000f3fe608060405234801561001057600080fd5b50600436106100415760003560e01c806312beb00f14610046578063446e35ba146100645780638392c50f14610080575b600080fd5b61004e61009e565b60405161005b91906106d0565b60405180910390f35b61007e60048036038101906100799190610867565b6102db565b005b61008861041c565b6040516100959190610963565b60405180910390f35b60606000805480602002602001604051908101604052809291908181526020016000905b828210156102d257838290600052602060002090600702016040518060e0016040529081600082015481526020016001820180546100ff906109ad565b80601f016020809104026020016040519081016040528092919081815260200182805461012b906109ad565b80156101785780601f1061014d57610100808354040283529160200191610178565b820191906000526020600020905b81548152906001019060200180831161015b57829003601f168201915b50505050508152602001600282018054610191906109ad565b80601f01602080910402602001604051908101604052809291908181526020018280546101bd906109ad565b801561020a5780601f106101df5761010080835404028352916020019161020a565b820191906000526020600020905b8154815290600101906020018083116101ed57829003601f168201915b505050505081526020016003820154815260200160048201548152602001600582018054610237906109ad565b80601f0160208091040260200160405190810160405280929190818152602001828054610263906109ad565b80156102b05780601f10610285576101008083540402835291602001916102b0565b820191906000526020600020905b81548152906001019060200180831161029357829003601f168201915b50505050508152602001600682015481525050815260200190600101906100c2565b50505050905090565b600073ffffffffffffffffffffffffffffffffffffffff163373ffffffffffffffffffffffffffffffffffffffff160361034a576040517f08c379a000000000000000000000000000000000000000000000000000000000815260040161034190610a3b565b60405180910390fd5b60006040518060e001604052804281526020018881526020018781526020018681526020018581526020018481526020018381525090806001815401808255809150506001900390600052602060002090600702016000909190919091506000820151816000015560208201518160010190816103c79190610c07565b5060408201518160020190816103dd9190610c07565b50606082015181600301556080820151816004015560a08201518160050190816104079190610c07565b5060c082015181600601555050505050505050565b600080600090505b60028110156104b2573373ffffffffffffffffffffffffffffffffffffffff166001826002811061045857610457610cd9565b5b0160009054906101000a900473ffffffffffffffffffffffffffffffffffffffff1673ffffffffffffffffffffffffffffffffffffffff160361049f5760019150506104b8565b80806104aa90610d37565b915050610424565b50600090505b90565b600081519050919050565b600082825260208201905092915050565b6000819050602082019050919050565b6000819050919050565b6104fa816104e7565b82525050565b600081519050919050565b600082825260208201905092915050565b60005b8381101561053a57808201518184015260208101905061051f565b60008484015250505050565b6000601f19601f8301169050919050565b600061056282610500565b61056c818561050b565b935061057c81856020860161051c565b61058581610546565b840191505092915050565b600060e0830160008301516105a860008601826104f1565b50602083015184820360208601526105c08282610557565b915050604083015184820360408601526105da8282610557565b91505060608301516105ef60608601826104f1565b50608083015161060260808601826104f1565b5060a083015184820360a086015261061a8282610557565b91505060c083015161062f60c08601826104f1565b508091505092915050565b60006106468383610590565b905092915050565b6000602082019050919050565b6000610666826104bb565b61067081856104c6565b935083602082028501610682856104d7565b8060005b858110156106be578484038952815161069f858261063a565b94506106aa8361064e565b925060208a01995050600181019050610686565b50829750879550505050505092915050565b600060208201905081810360008301526106ea818461065b565b905092915050565b6000604051905090565b600080fd5b600080fd5b600080fd5b600080fd5b7f4e487b7100000000000000000000000000000000000000000000000000000000600052604160045260246000fd5b61074882610546565b810181811067ffffffffffffffff8211171561076757610766610710565b5b80604052505050565b600061077a6106f2565b9050610786828261073f565b919050565b600067ffffffffffffffff8211156107a6576107a5610710565b5b6107af82610546565b9050602081019050919050565b82818337600083830152505050565b60006107de6107d98461078b565b610770565b9050828152602081018484840111156107fa576107f961070b565b5b6108058482856107bc565b509392505050565b600082601f83011261082257610821610706565b5b81356108328482602086016107cb565b91505092915050565b610844816104e7565b811461084f57600080fd5b50565b6000813590506108618161083b565b92915050565b60008060008060008060c08789031215610884576108836106fc565b5b600087013567ffffffffffffffff8111156108a2576108a1610701565b5b6108ae89828a0161080d565b965050602087013567ffffffffffffffff8111156108cf576108ce610701565b5b6108db89828a0161080d565b95505060406108ec89828a01610852565b94505060606108fd89828a01610852565b935050608087013567ffffffffffffffff81111561091e5761091d610701565b5b61092a89828a0161080d565b92505060a061093b89828a01610852565b9150509295509295509295565b60008115159050919050565b61095d81610948565b82525050565b60006020820190506109786000830184610954565b92915050565b7f4e487b7100000000000000000000000000000000000000000000000000000000600052602260045260246000fd5b600060028204905060018216806109c557607f821691505b6020821081036109d8576109d761097e565b5b50919050565b600082825260208201905092915050565b7f496e76616c696420416464726573730000000000000000000000000000000000600082015250565b6000610a25600f836109de565b9150610a30826109ef565b602082019050919050565b60006020820190508181036000830152610a5481610a18565b9050919050565b60008190508160005260206000209050919050565b60006020601f8301049050919050565b600082821b905092915050565b600060088302610abd7fffffffffffffffffffffffffffffffffffffffffffffffffffffffffffffffff82610a80565b610ac78683610a80565b95508019841693508086168417925050509392505050565b6000819050919050565b6000610b04610aff610afa846104e7565b610adf565b6104e7565b9050919050565b6000819050919050565b610b1e83610ae9565b610b32610b2a82610b0b565b848454610a8d565b825550505050565b600090565b610b47610b3a565b610b52818484610b15565b505050565b5b81811015610b7657610b6b600082610b3f565b600181019050610b58565b5050565b601f821115610bbb57610b8c81610a5b565b610b9584610a70565b81016020851015610ba4578190505b610bb8610bb085610a70565b830182610b57565b50505b505050565b600082821c905092915050565b6000610bde60001984600802610bc0565b1980831691505092915050565b6000610bf78383610bcd565b9150826002028217905092915050565b610c1082610500565b67ffffffffffffffff811115610c2957610c28610710565b5b610c3382546109ad565b610c3e828285610b7a565b600060209050601f831160018114610c715760008415610c5f578287015190505b610c698582610beb565b865550610cd1565b601f198416610c7f86610a5b565b60005b82811015610ca757848901518255600182019150602085019450602081019050610c82565b86831015610cc45784890151610cc0601f891682610bcd565b8355505b6001600288020188555050505b505050505050565b7f4e487b7100000000000000000000000000000000000000000000000000000000600052603260045260246000fd5b7f4e487b7100000000000000000000000000000000000000000000000000000000600052601160045260246000fd5b6000610d42826104e7565b91507fffffffffffffffffffffffffffffffffffffffffffffffffffffffffffffffff8203610d7457610d73610d08565b5b60018201905091905056fea2646970667358221220e8aad38ba6172da7d806e3fc03411d051bc408ab2050e0065ef8925b51042a1564736f6c63430008110033",
  "linkReferences": {},
  "deployedLinkReferences": {}
}